:020000040800F2
:10000000FCFF0020651100004911000049110000AB
:100010004911000049110000491100004911000078
:100020004911000049110000491100004911000068
:100030004911000049110000491100004911000058
:100040004911000049110000491100004911000048
:100050004911000049110000491100004911000038
:100060004911000049110000491100004911000028
:100070004911000049110000491100004911000018
:100080004911000049110000491100004911000008
:1000900049110000491100004911000049110000F8
:1000A00049110000491100004911000049110000E8
:1000B00049110000491100004911000049110000D8
:1000C00049110000491100004911000049110000C8
:1000D00049110000491100004911000049110000B8
:1000E00049110000491100004911000049110000A8
:1000F0004911000049110000491100004911000098
:100100004911000049110000491100004911000087
:100110004911000049110000491100004911000077
:100120004911000049110000491100004911000067
:100130004911000049110000491100004911000057
:100140004911000049110000491100004911000047
:1001500081B0194900EA0101084600220EE004209E
:1001600022E0082020E010201EE020201CE040209B
:100170001AE0802018E040F2001015E00F49884294
:10018000EDD00F498842ECD00E498842EBD00E49A1
:100190008842EAD00D498842E9D00D498842E8D02A
:1001A0000C498842E7D010460B49096841EA000231
:1001B00009490A6001B0704700FCFFFF00080140D8
:1001C000000C0140001001400014014000180140E3
:1001D000001C0140002001401810024083B0CDF8FF
:1001E00000E000F0FF031A09104603F00F02134667
:1001F00014E0194A02921FE0184A02921CE0184AC1
:10020000029219E0174A029216E0174A029213E08E
:10021000164A029210E0164A02920DE00028E8D039
:100220000128E9D00228EAD00328EBD00428ECD03A
:100230000528EDD00628EED0012212B29A40ADF882
:10024000042002980A46BDF8041000F013F8DDF807
:1002500000E003B0704700BF00080140000C0140FF
:10026000001001400014014000180140001C014032
:100270000020014081B0CDF800E08CB21546774BEC
:1002800000EA03031E461846FFF762FFB4F1FF0FB2
:100290000CD1734B9D4203D14FF033333360D9E01F
:1002A000422D03D14FF044333360D3E04FF6FF7358
:1002B0009C4214D16A4B9D4207D14FF033333360D7
:1002C000341D4FF033332360C4E0422D07D14FF08B
:1002D00044333360341D4FF044332360BAE00021CF
:1002E000002005F001030BB100211DE005F0020321
:1002F00033B105F4C0730BB1082100E0042113E011
:1003000005F0040333B105F020030BB1042100E034
:10031000002109E005F0080333B105F020030BB11B
:100320000C2100E00821FFE74E4B05EA03030BB167
:10033000032009E005F400730BB1022004E005F48A
:1003400080630BB10120FFE705F00C030BB1014303
:10035000FFE704F0FF039BB2002B3BD0376800207F
:100360001FFA84F832462E4608282CD24FF001039B
:1003700003FA00F408EA0403A34222D185004FF0F7
:100380000F03AB40DB4307EA030401FA05F344EA39
:1003900003031D4606F48173B3F5817F05D102F294
:1003A00014044FF001038340236006F08203822B84
:1003B00005D102F210044FF00103834023602F4661
:1003C000FFE7401CD0E717601FFA88F00F46314660
:1003D000164602E00F462946A0B2B0F1FF0F39D908
:1003E000331DD3F800800022082A30D202F208041C
:1003F0004FF0010303FA04F400EA0403A34224D1FA
:1004000095004FF00F03AB40DB4308EA030807FAFF
:1004100005F348EA030801F48173B3F5817F07D13E
:1004200006F2140502F208044FF00103A3402B600A
:1004300001F08203822B07D106F2100502F20804B4
:100440004FF00103A3402B60FFE7521CCCE7331DA4
:10045000C3F80080DDF800E001B0704700FCFFFF4A
:10046000140008000008080081B000230360CB00DE
:100470009BB242EA030304689BB244EA03030360AD
:10048000051D13141C462B6864F382032B6000F2D5
:100490001C0500242B6864F3CB232B600124036824
:1004A00064F38613036001B07047FFFF81B0CDF89D
:1004B00000E0012252B23E490A6000F268010B6876
:1004C0006FF0006103EA0102144603F00061C90EF7
:1004D0000B4602F00041B1F1004F02D135490A68E4
:1004E00001E035490A6804F47021090C0E464FF604
:1004F000FF7104EA01010D4604F44011B1F5401FFB
:100500000DD16FF0706102EA01010E462A490A68B6
:100510006FF070610A4028490A60324616E004F420
:100520008011B1F5801F09D14FF00301B140C943DB
:1005300002EA010141F070610A4607E0610D09011C
:1005400005FA01F1C9430A4042F070622BB1610D16
:10055000090105FA01F10A43FFE704F00041B1F196
:10056000004F02D113490A6001E013490A6040F2CA
:10057000000A81464FEA8A0109EB01010968B1F1DD
:10058000FF3F10D009F134014FEA8A03C918096806
:100590000A4609EB0301096808461146FFF71EFEEB
:1005A0000AF1010AE6E7DDF800E001B0704700BF9C
:1005B000000342421C0001400400014081B000F2EF
:1005C0000C02116000F208021368C3F3000202B9C2
:1005D000F8E700F20C02126890B201B07047FFFF1A
:1005E00081B0CDF800E081B20348FFF7E7FFDDF806
:1005F00000E001B0704700BF0030014083B0CDF88B
:1006000000E08DF8040002910B4C0C4B1C600C4C6C
:100610000C4B1C60012464B20B4B1C601046FFF7AE
:1006200045FF029A9DF804100848FFF71DFFDDF80A
:1006300000E003B0704700BFFFFFFFFF0000002095
:100640005106000004000020BC034242003C004070
:1006500081B0CDF800E081B20348FFF7AFFFDDF8CD
:1006600000E001B0704700BF003C004081B0CDF811
:1006700000E081B20348FFF7A1FFDDF800E001B020
:10068000704700BF0038004081B0CDF800E04FF067
:10069000420289B2FFF7EEFDDDF800E001B07047DD
:1006A00081B0CDF800E0044A89B2FFF7E3FDDDF840
:1006B00000E001B0704700BF140008000149086065
:1006C000704700BFB881224201490860704700BFEF
:1006D0008C01224201490860704700BFAC012242F0
:1006E00001490860704700BFA80122420149086023
:1006F000704700BF9401214201490860704700BF64
:10070000A081224201490860704700BFA4812242B3
:1007100001490860704700BF9C812142014908607F
:10072000704700BF9881214201490860704700BFAF
:10073000B001224283B0CDF800E08DF804008DF8BE
:1007400008109DF80820521C8DF8082000200A4C43
:100750002468A04702AA0121104600F033F801AA3C
:100760000121104600F02EF80120034C2468A04718
:10077000DDF800E003B070470C00002083B0CDF836
:1007800000E08DF804008DF808109DF80820521C38
:100790008DF8082000200A4C2468A04702AA0121F5
:1007A000104600F00FF801AA0121104600F00AF8E7
:1007B0000120034C2468A047DDF800E003B0704737
:1007C0001000002083B0CDF800E08AB2014690B25C
:1007D00083B2421E90B26BB10A78D4B2ADF8040075
:1007E0000291A0B2054C2468A0470299BDF804000C
:1007F000491CEDE7DDF800E003B07047140000206D
:1008000001490860704700BF9C812142014908608E
:10081000704700BF9881214201490860704700BFBE
:10082000B081224201490860704700BFB081224276
:1008300001490860704700BF948122420149086065
:10084000704700BF98812242026803490A60011D77
:100850000A6802490A60704714000020180000204E
:10086000026804490A6000F208010A6802490A6045
:10087000704700BF100000200C00002001490860F4
:10088000704700BF9001214281B0CDF800E0011D0A
:100890000A680168C8B21146034AFFF7AFFE00209C
:1008A000DDF800E001B070479C15000081B0CDF884
:1008B00000E0A9E0012905D140F210016548FFF7E9
:1008C000E3FE04E040F210016248FFF7E9FEBBE0FE
:1008D000012905D140F204015F48FFF7D5FE04E08D
:1008E00040F204015C48FFF7DBFEADE0012905D1D1
:1008F00042F200015948FFF7C7FE04E042F200014E
:100900005648FFF7CDFE9FE0012905D140F2004196
:100910005148FFF7B9FE04E040F200414E48FFF7AE
:10092000BFFE91E0012905D140F600014A48FFF7DA
:10093000ABFE04E040F600014748FFF7B1FE83E05C
:10094000012905D141F200014348FFF79DFE04E073
:1009500041F200014048FFF7A3FE75E0012905D1EF
:1009600040F201013B48FFF78FFE04E040F2010135
:100970003848FFF795FE67E0012905D140F20041B4
:100980003648FFF781FE04E040F200413348FFF7AC
:1009900087FE59E0012905D140F200212F48FFF7D9
:1009A00073FE04E040F200212C48FFF779FE4BE093
:1009B000012905D140F200112848FFF765FE04E047
:1009C00040F200112548FFF76BFE3DE0012905D1FB
:1009D00040F240012248FFF757FE04E040F2400198
:1009E0001F48FFF75DFE2FE0012905D140F280018D
:1009F0001B48FFF749FE04E040F280011848FFF76A
:100A00004FFE21E0012020E000283FF453AF0128F1
:100A10003FF45EAF02283FF469AF03283FF474AFA0
:100A200004283FF47FAF05283FF48AAF06283FF43F
:100A300095AF0728A0D00828ACD00928B8D00A283C
:100A4000C4D00B28D0D0DDE70020DDF800E001B0F5
:100A5000704700BF00080140001001400014014031
:100A6000000C014081B0CDF800E0A9E0012905D1DA
:100A700040F220016548FFF707FE04E040F2200144
:100A80006248FFF70DFEBBE0012905D140F20801E5
:100A90005F48FFF7F9FD04E040F208015C48FFF70A
:100AA000FFFDADE0012905D144F200015948FFF7EF
:100AB000EBFD04E044F200015648FFF7F1FD9FE032
:100AC000012905D140F200415148FFF7DDFD04E066
:100AD00040F200414E48FFF7E3FD91E0012905D1C6
:100AE00040F600014A48FFF7CFFD04E040F6000160
:100AF0004748FFF7D5FD83E0012905D141F2000108
:100B00004348FFF7C1FD04E041F200014048FFF710
:100B1000C7FD75E0012905D141F200013D48FFF70D
:100B2000B3FD04E041F200013A48FFF7B9FD67E088
:100B3000012905D140F600013648FFF7A5FD04E084
:100B400040F600013348FFF7ABFD59E0012905D11C
:100B500040F240012F48FFF797FD04E040F24001CA
:100B60002C48FFF79DFD4BE0012905D140F2200103
:100B70002848FFF789FD04E040F220012548FFF7EF
:100B80008FFD3DE0012905D140F240012248FFF7E9
:100B90007BFD04E040F240011F48FFF781FD2FE09C
:100BA000012905D140F280011B48FFF76DFD04E0EB
:100BB00040F280011848FFF773FD21E0012020E09A
:100BC00000283FF453AF01283FF45EAF02283FF402
:100BD00069AF03283FF474AF04283FF47FAF0528C2
:100BE0003FF48AAF06283FF495AF0728A0D0082825
:100BF000ACD00928B8D00A28C4D00B28D0D0DDE763
:100C00000020DDF800E001B0704700BF000801409F
:100C10000010014000140140000C014081B0CDF8EB
:100C200000E0011D0A680168C8B21146034AFFF7D7
:100C3000E5FC0020DDF800E001B070479C150000E5
:100C400001490860704700BFB001224201490860B5
:100C5000704700BFAC01224201490860704700BFE5
:100C6000A881224201490860704700BF80012142EB
:100C700001490860704700BFA8012242014908608D
:100C8000704700BFB481224201490860704700BF2D
:100C90008801224284B0CDF800E0072424B28DF808
:100CA0000410C1B29DF80400002C54DB27E0072299
:100CB00012B2ADF80C2032E0062212B2ADF80C20D0
:100CC0002DE0052212B2ADF80C2028E0042212B269
:100CD000ADF80C2023E0032212B2ADF80C201EE088
:100CE000022212B2ADF80C2019E0012212B2ADF8C6
:100CF0000C2014E0002212B2ADF80C200FE0002C02
:100D0000D5D0012CD8D0022CDBD0032CDED0042C83
:100D1000E1D0052CE4D0062CE7D0072CEAD0A1F2D4
:100D2000200212B2D300384AD218121912788DF864
:100D300004108DF80800ADF80A40BDF90C10D0B2CF
:100D4000FFF7F8FCBDF90A409DF808009DF8041073
:100D5000641E24B2A8E7072109B2002950DB27E06E
:100D6000072212B2ADF80C2032E0062212B2ADF822
:100D70000C202DE0052212B2ADF80C2028E0042250
:100D800012B2ADF80C2023E0032212B2ADF80C2011
:100D90001EE0022212B2ADF80C2019E0012212B2BC
:100DA000ADF80C2014E0002212B2ADF80C200FE0D8
:100DB0000029D5D00129D8D00229DBD00329DED0E3
:100DC0000429E1D00529E4D00629E7D00729EAD093
:100DD000A0F2200212B2D3000B4AD2185218127895
:100DE0008DF80400ADF80610BDF90C10D0B2FFF775
:100DF000C5FCBDF906109DF80400491E09B2ACE718
:100E0000DDF800E004B07047C4120000FFFFFFFFF0
:100E100041F6FF27C0F2B7077F1EFDD100BF00BF1C
:100E200000BF00BF00BF704781B0CDF800E05FFA9F
:100E300081F95FFA82FA0FE05FFA8AF15FFA89F0CE
:100E4000FFF734FD0DE05FFA8AF15FFA89F0FFF7F2
:100E500009FE06E0012004E00028EDD00128F2D0D0
:100E6000F8E7DDF800E001B07047FFFF83B0CDF890
:100E700000E08DF804008DF808100020134C246861
:100E8000A04701AA01211046FFF79CFC02AA0121FC
:100E90001046FFF797FC01200C4C2468A047002067
:100EA0000B4C2468A04701AA01211046FFF78AFCD9
:100EB00002AA01211046FFF785FC0120044C24689A
:100EC000A047DDF800E003B0704700BF0C00002031
:100ED0001000002081B0CDF800E003460846FFF77F
:100EE000B3FC1846FFF7BCFCDDF800E001B070472A
:100EF00044F67F77C0F212077F1EFDD100BF00BF0E
:100F000000BF00BF00BF704781B0CDF800E08B4646
:100F100009E05846FFF782FE0AE05846FFF7B4FCA6
:100F200006E0012004E00028F3D00128F5D0F8E71E
:100F3000DDF800E001B0704781B01548006840F06E
:100F4000010113480160134913480160104801680A
:100F5000124801400E4801600D4801686FF480207E
:100F600001400B4801600C4801686FF4FE0001402D
:100F700009480160064801686FF0A050014004482C
:100F800001604FF000010648016001B0704700BFEA
:100F9000001002400000FFF004100240FFFFF6FEC8
:100FA0002C10024081B01CF8019B0BF8019BBBEB9D
:100FB0000A0FF8D101B0704781B04FF000094FF02F
:100FC000000CBDEB0A0F04DCBDEB0B0F01DBD446BC
:100FD000EA464BF8049BBBEB0A0FFAD1BCEB0A0FB5
:100FE00005DDE246D9F800B00BF1040BF1E701B0E2
:100FF0007047FFFF81B0CDF800E000220021002003
:10100000FFF712FF002202210020FFF70DFF054825
:1010100001460020FFF778FFFFF76AFFDDF800E0E8
:1010200001B070476816000081B0CDF800E00D49AE
:101030000D48FFF74FFF00210920FFF717FF092197
:101040000A20FFF713FF06210B20FFF70FFF0121F6
:101050000C20FFF70BFFFFF74BFFDDF800E001B0BE
:10106000704700BF701600000816000081B0CDF870
:1010700000E04D212020FFF70DFEFFF7C9FE69219A
:101080004D20FFF707FEFFF7C3FE6B216920FFF736
:1010900001FEFFF7BDFE72216B20FFF7FBFDFFF79E
:1010A000B7FE6F217220FFF7F5FDFFF7B1FE452176
:1010B0006F20FFF7EFFDFFF7ABFE6C214520FFF738
:1010C000E9FDFFF7A5FE65216C20FFF7E3FDFFF7C3
:1010D0009FFE6B216520FFF7DDFDFFF799FE742170
:1010E0006B20FFF7D7FDFFF793FE72217420FFF707
:1010F000D1FDFFF78DFE6F217220FFF7CBFDFFF7CB
:1011000087FE6E216F20FFF7C5FDFFF781FE692185
:101110006E20FFF7BFFDFFF77BFE6B216920FFF715
:10112000B9FDFFF775FE61216B20FFF7B3FDFFF7F7
:101130006FFE20216120FFF7ADFDFFF769FEDDF8AE
:1011400000E001B07047FFFF81B0FEE701B07047DB
:1011500081B002490248016001B0704740190100A6
:101160000800002000F00CF800F086FAFFF7F0FF0E
:10117000FFF740FFFFF758FFFFF778FFFCE7FEE7B8
:1011800081B0CDF800E0464A464B474C47494BF604
:101190008030814206D94648006840F00201444848
:1011A000016011E045F6C050814206D94048006810
:1011B00040F001013E48016006E03D4801686FF0E3
:1011C000070001403A480160FFF7B6FE3948036066
:1011D00039480460394802EA00013948016002F0E8
:1011E000010040B119463648006800F002000028AE
:1011F00000D1F8E700E0194602F4803040B10B4618
:101200002F48006800F40030002800D1F8E700E023
:101210000B4602F0805068B12948006840F08051C8
:10122000274801602648006800F00050002800D1DF
:10123000F8E7FFE702F0806078B12148006840F0ED
:1012400080611F48016011461A461D48006800F081
:101250000060002800D1F8E701E011461A4601F0CD
:10126000807070B11648006840F0807114480160C9
:1012700011461348006800F0007000B9F9E70A460B
:10128000FFE70C48006800F00C01900000F00C0033
:10129000814200D0F5E7DDF800E001B0704700BF03
:1012A0008100010502841D0044060100401901006F
:1012B00000200240041002402C100240FFFF0F00EB
:1012C00000100240000000000000000000080808B4
:1012D0000808000800141414000000400014143E14
:1012E000143E145400081E281C0A3C080030320426
:1012F0000810264600182428102A245A000C040836
:1013000000000040000810202020100800080402FF
:10131000020204080000081C3E1C08000000080827
:101320003E08080000000000000008100000000057
:101330003E00000000000000000000080000020461
:1013400008102000001C22222222221C000818283B
:1013500008080808001C22020C10203E001C220273
:101360000C02221C00040C14241E0404003E202045
:101370003E02027E000C10203C22221C003E020491
:1013800008101050001C22221C22225C001C222269
:101390001E02025C000008000000080000000800B7
:1013A0000000081000040810201008040000003E8F
:1013B000003E00000010080402040810001C220275
:1013C0000C080008001C22021A2A2A1C001C2222D7
:1013D000223E2222003C22223C22223C001C2220CF
:1013E0002020221C0038242222222438003E2020E3
:1013F0003C20203E003E20203C202020001C2220BB
:101400002E22221E002222223E222222001C080816
:101410000808081C000E04040404241800222428D0
:1014200030282422002020202020203E0022362A9E
:101430002A222222002222322A262222001C2222B2
:101440002222221C003C22223C202020001C22229E
:10145000222A241A003C22223C282422001E20207A
:101460001C02023C003E080808080808002222224C
:101470002222221C002222222222140800222222BE
:101480002A2A2A14002222140814222200222222AC
:101490001C080808003E02040810203E00302020EE
:1014A000202020300000201008040200000E02025C
:1014B0000202020E000814000000000000000000FC
:1014C0000000003E00080400000000000000001CB6
:1014D000021E221E002020202C32223C0000003C54
:1014E0002020223C000202021A26221E0000001CBC
:1014F000223E201C000C12103810101000001E227A
:10150000221E021C002020202C3222220000080073
:10151000080808080004000C0404241800202024F3
:1015200028302824001808080808081C0000003487
:101530002A2A22220000002C322222220000001C33
:101540002222221C0000003C223C20200000001A25
:10155000261E02020000002C322020200000001C69
:10156000201C023C001010381010120C0000002249
:101570002222261A00000022222214280000002223
:10158000222A2A1C00000022140814220000002233
:10159000221E021C0000003E0408103E2A0000002B
:1015A0002B0000002C000000FFFFFFFF00000000E8
:1015B000000000000000000000000000000000002B
:1015C000000000000000000000000000000000001B
:1015D00018080000180800001808000000000000AB
:1015E00000000000000000000000000000000000FB
:1015F00000000000000000000000000000000000EB
:1016000000000000001120087D080000890C000087
:101610007D0C0000710C00004D0C0000410C00001E
:10162000650C0000590C000005070000F9060000D9
:101630001D07000011070000FFFFFFFFFFFFFFFF76
:10164000FFFFFFFFFFFFFFFFFFFFFFFFFFFFFFFFAA
:10165000FFFFFFFFFFFFFFFFFFFFFFFFFFFFFFFF9A
:10166000FFFFFFFFFFFFFFFF070000000403000074
:1016700051060000FFFFFFFF00B5DFF810B0DFF8F4
:1016800010A0FFF799FC00BD704700BF00000020CC
:101690001C000020FFFFFFFFFFFFFFFFFFFFFFFF1A
:00000001FF
