:1000000096EF06F00000000000EF00F00000000096
:0A0010000000000000000000F3D71C
:0C001C003CB002D08B9801D08B88120001
:0C0028003CB002D0899801D089881200F9
:0C0034003CB002D08B9601D08B861200ED
:0C0040003CB002D08B9A01D08B8A1200D9
:0C004C003CB002D08B9601D08B861200D5
:0C0058003CB002D08A9201D08A821200D3
:0C0064003CB002D08B9601D08B861200BD
:0C0070003CB002D08B9C01D08B8C1200A5
:0C007C003CB002D08D9201D08D821200A9
:0C0088003CB002D08A9001D08A801200A7
:0C0094003CB002D08B9201D08B82120095
:0C00A0003CB002D08B9601D08B86120081
:0C00AC003CB002D0899201D08982120081
:0C00B8003CB002D08B9801D08B88120065
:0C00C4003CB002D08B9E01D08B8E12004D
:0C00D0003CB002D08B9C01D08B8C120045
:0C00DC003CB002D08B9801D08B88120041
:0C00E8003CB002D08B9401D08B8412003D
:0C00F4003CB002D08B9801D08B88120029
:0C0100003CB002D08B9801D08B8812001C
:0C010C003CB002D08B9601D08B86120014
:0C0118003CB002D08B9A01D08B8A120000
:0C0124003CB002D08F9401D08F841200F8
:0C0130003CB002D08A9401D08A841200F6
:0C013C003CB002D0899401D089841200EC
:0C0148003CB002D08B9801D08B881200D4
:0C0154003CB002D08B9E01D08B8E1200BC
:0C0160003CB002D08D9601D08D861200BC
:0C016C003CB002D08F9001D08F801200B8
:0C0178003CB002D08F9201D08F821200A8
:0C0184003CB002D08D9401D08D8412009C
:0C0190003CB002D08B9001D08B8012009C
:10019C003CC0C9FF016A0150000A05E1000EC7B05E
:0C01AC00010E016EF8D7C9CF01F012005F
:0C01B8003CB002D0899001D08980120078
:0C01C4003CB002D08D9001D08D80120064
:0C01D0003CB002D08B9601D08B86120050
:0C01DC003CB002D08B9A01D08B8A12003C
:1001E8003CC06AFF016A0150000A05E1000E68B0D0
:0C01F800010E016EF8D76ACF01F0120072
:10020400F250026EF29E0500FF6A0150FE6E00502D
:08021400FD6E02BEF28E120025
:10021C0036C03AF037C03BF038C000F039C001F0BE
:10022C00010E385E000E395A0050011012E027C042
:10023C00E1FF28C0E2FF3AC0E9FF3BC0EAFFEECF86
:10024C00E6FF25C000F026C001F0D6DF3A4A3B2A73
:04025C00E3D71200D2
:10026000FF0E196EFF0E1A6EFF0E1B6EFF0E1C6E38
:100270009C0E1D6E010E1E6E3C0E1F6E000E206E3B
:10028000949A3650040A02E1948601D09496948898
:10029000C66AC79CC79E3650C6123850C612375021
:1002A000C712385205E03950000AD8B4C78C03D0C1
:0A02B0003952D8A4C78CC68A120088
:1002BA00342A17C0E1FF18C0E2FFE66A15C000F051
:1002CA0016C001F09ADF340E366E000E376E010E3C
:1002DA00386E000E396E9DDF330E366E000E376EA5
:1002EA00010E386E000E396E94DF17C0E1FF18C098
:1002FA00E2FF010EE66E15C000F016C001F07DDFC8
:02030A001200DF
:10030C0033C0F6FF34C0F7FF35C0F8FF0900F5CF56
:10031C0036F0040E3324F66E000E3420F76E000E09
:10032C003520F86E0900F5CF37F0080E3324F66E41
:10033C00000E3420F76E000E3520F86E0900F5CF54
:10034C0038F00C0E3324F66E000E3420F76E000ECF
:10035C003520F86E0900F5CF39F07CDF000E006E09
:02036C0012007D
:10036E0033C0F6FF34C0F7FF35C0F8FF0900F5CFF4
:10037E0036F0040E3324F66E000E3420F76E000EA7
:10038E003520F86E0900F5CF37F0080E3324F66EDF
:10039E00000E3420F76E000E3520F86E0900F5CFF2
:1003AE0038F00C0E3324F66E000E3420F76E000E6D
:1003BE003520F86E0900F5CF39F04BDF000E006ED8
:0203CE0012001B
:1003D00033C0F6FF34C0F7FF35C0F8FF0900F5CF92
:1003E00036F0040E3324F66E000E3420F76E000E45
:1003F0003520F86E0900F5CF37F0080E3324F66E7D
:10040000000E3420F76E000E3520F86E0900F5CF8F
:1004100038F00C0E3324F66E000E3420F76E000E0A
:100420003520F86E0900F5CF39F01ADF000E006EA6
:020430001200B8
:100432004DD034B002D0929001D092800F0125911C
:100442006AD034B002D0949001D0948064D034B099
:1004520002D0969001D096805ED034B002D09496AD
:1004620001D0948658D034B002D0949801D09488A8
:1004720052D034B002D0949A01D0948A4CD034B085
:1004820002D0949201D0948246D034B002D093909C
:1004920001D0938040D034B002D0949E01D0948E8B
:1004A2003AD034B002D0949C01D0948C34D034B081
:1004B20002D0949601D094862ED034B002D0949873
:1004C20001D0948828D0010E006E27D03350000A44
:1004D200B0E03350010AB5E03350020AB8E03350BD
:1004E200030ABBE03350040ABEE03350050AC1E000
:1004F2003350060AC4E03350070AC7E03350080AF3
:10050200CAE03350090ACDE033500A0AD0E0335032
:0C0512000B0AD3E0D8D7000E006E1200D8
:10051E004DD034B002D0929201D092820F01259329
:10052E006AD034B002D0929801D0928864D034B0A0
:10053E0002D0969201D096825ED034B002D09496BC
:10054E0001D0948658D034B002D0949801D09488BB
:10055E0052D034B002D0949A01D0948A4CD034B098
:10056E0002D0949401D0948446D034B002D09392A9
:10057E0001D0938240D034B002D0949E01D0948E9C
:10058E003AD034B002D0949C01D0948C34D034B094
:10059E0002D0949601D094862ED034B002D0949886
:1005AE0001D0948828D0010E006E27D03350000A57
:1005BE00B0E03350010AB5E03350020AB8E03350D0
:1005CE00030ABBE03350040ABEE03350050AC1E013
:1005DE003350060AC4E03350070AC7E03350080A06
:1005EE00CAE03350090ACDE033500A0AD0E0335046
:0C05FE000B0AD3E0D8D7000E006E1200EC
:10060A0051D034B002D0929401D092840F01259532
:10061A006ED034B002D0969601D0968668D034B0A7
:10062A0002D0969401D0968462D034B002D09496C7
:10063A0001D094865CD034B002D0949801D09488CA
:10064A0056D034B002D0949A01D0948A50D034B0A3
:10065A0002D0989001D098804AD034B002D09394B6
:10066A0001D0938444D034B002D0989401D09884B5
:10067A000F0123953CD034B002D0989201D09882D1
:10068A000F01239334D034B002D0949601D09486CB
:10069A002ED034B002D0949801D0948828D0010E7C
:1006AA00006E27D03350000AACE03350010AB1E0A3
:1006BA003350020AB4E03350030AB7E03350040A55
:1006CA00BAE03350050ABDE03350060AC0E03350A1
:1006DA00070AC3E03350080AC6E03350090ACBE0E0
:1006EA0033500A0AD0E033500B0AD3E0D8D7000EB1
:0406FA00006E12007C
:1006FE0033C0F6FF34C0F7FF35C0F8FF0900F5CF61
:10070E0025F00900F5CF26F00900F5CF27F00900F6
:10071E00F5CF28F0040E3324F66E000E3420F76E5B
:10072E00000E3520F86E0900F5CF21F00900F5CF47
:10073E0022F00900F5CF23F00900F5CF24F01200C6
:10074E0033C0F6FF34C0F7FF35C0F8FF0900F5CF10
:10075E0015F00900F5CF16F00900F5CF17F00900D6
:10076E00F5CF18F0080E3324F66E000E3420F76E17
:10077E00000E3520F86E0900F5CF29F00900F5CFEF
:10078E002AF00900F5CF2BF00900F5CF2CF012005E
:10079E00342A2BC0E1FF2CC0E2FFE66A29C000F02C
:1007AE002AC001F028DD340E366E000E376E010EB3
:1007BE00386E000E396E2BDD330E366E000E376E30
:1007CE00010E386E000E396E22DD2BC0E1FF2CC0FB
:1007DE00E2FF010EE66E29C000F02AC001F00BDD2B
:0207EE001200F7
:1007F000070E2F6E000E306E800E3018006E800EC9
:10080000005C02E1000E2F5CD8A08DD026D0070E30
:10081000316E000E326E51D0060E316E000E326E09
:100820004CD0050E316E000E326E47D0040E316E84
:10083000000E326E42D0030E316E000E326E3DD08D
:10084000020E316E000E326E38D0010E316E000E87
:10085000326E33D0316A326A30D0000E301802E185
:10086000000E2F18D4E0000E301802E1010E2F18F0
:10087000D3E0000E301802E1020E2F18D2E0000E75
:10088000301802E1030E2F18D1E0000E301802E1FB
:10089000040E2F18D0E0000E301802E1050E2F18BC
:1008A000CFE0000E301802E1060E2F18CEE0000E49
:1008B000301802E1070E2F18CDE0200E2D5C056EDA
:1008C000066A000E065A030E046E05C000F006C04C
:1008D00001F0000E06BEFF0E026E036E045007E02C
:1008E00000360090013602360336FF0FF8D7360E79
:1008F00000260D0E0122000E02222F500024F66E5B
:1009000030500120F76E000E30BEFF0E0220F86E50
:100910000900F5CF33F031C034F041DF010E2F5E16
:10092000000E305A69D7070E2F6E000E306E800E03
:100930003018006E800E005C02E1000E2F5CD8A023
:100940008DD026D0070E316E000E326E51D0060EBD
:10095000316E000E326E4CD0050E316E000E326ECE
:1009600047D0040E316E000E326E42D0030E316E4F
:10097000000E326E3DD0020E316E000E326E38D057
:10098000010E316E000E326E33D0316A326A30D0D1
:10099000000E301802E1000E2F18D4E0000E3018BF
:1009A00002E1010E2F18D3E0000E301802E1020E12
:1009B0002F18D2E0000E301802E1030E2F18D1E0FC
:1009C000000E301802E1040E2F18D0E0000E30188F
:1009D00002E1050E2F18CFE0000E301802E1060EDE
:1009E0002F18CEE0000E301802E1070E2F18CDE0D0
:1009F000200E2E5C056E066A000E065A030E046E6B
:100A000005C000F006C001F0000E06BEFF0E026E2B
:100A1000036E045007E000360090013602360336BC
:100A2000FF0FF8D7360E00260D0E0122000E02220F
:100A30002F500024F66E30500120F76E000E30BEAD
:100A4000FF0E0220F86E0900F5CF33F031C034F00C
:0E0A500034DC010E2F5E000E305A69D7120002
:100A5E001BD02EC033F02FC034F030C035F0B1DCD7
:100A6E001DD02EC033F02FC034F030C035F047DC2F
:100A7E0015D02EC033F02FC034F030C035F070DCFE
:100A8E000DD0010E006E0AD02D50000AE2E02D505E
:0E0A9E00010AE7E02D50020AECE0F3D7120047
:100AAC00520E0B6E2B0E0C6E000E0D6E0D2EFED715
:0C0ABC000C2EFCD70B2EFAD70000120005
:100AC80015D02EC033F02FC034F0AFDC19D02EC0B3
:100AD80033F02FC034F01FDD13D02EC033F02FC0F9
:100AE80034F08FDD0DD0010E006E0AD02D50000AB3
:100AF800E8E02D50010AEBE02D50020AEEE0F3D7B2
:020B08001200D9
:100B0A00090E0B6E1E0E0C6EE40E0D6E0D2EFED728
:0C0B1A000C2EFCD70B2EFAD700001200A6
:100B260030C033F031C034F032C035F0E5DD2DC0D1
:0E0B360033F02EC034F02FC035F006DE120072
:100B44002BC0E1FF2CC0E2FFE66A29C000F02AC0F6
:100B540001F002EC01F02D0E366E000E376E010E20
:100B6400386E000E396E0EEC01F02E0E366E000E4D
:100B7400376E010E386E000E396E0EEC01F02BC08C
:100B8400E1FF2CC0E2FF010EE66E29C000F02AC08E
:100B940001F002EC01F017C0E1FF18C0E2FFE66AC1
:100BA40015C000F016C001F002EC01F02D0E366EF7
:100BB400000E376E010E386E000E396E0EEC01F029
:100BC4002E0E366E000E376E010E386E000E396E24
:100BD4000EEC01F017C0E1FF18C0E2FF010EE66E53
:0E0BE40015C000F016C001F002EC01F0120086
:100BF2002D6A2E6A2F6A67DF2D6A020E2E6E2F6A09
:100C020062DF2D6A6E0E2E6E100E2F6E000E306E8B
:060C120025DF7ADF12006D
:100C1800200E2D6E4D0E2E6EE7DD44DF4D0E2D6E2F
:100C2800690E2E6EE1DD3EDF690E2D6E6B0E2E6EA7
:100C3800DBDD38DF6B0E2D6E720E2E6ED5DD32DFEA
:100C4800720E2D6E6F0E2E6ECFDD2CDF6F0E2D6E99
:100C5800450E2E6EC9DD26DF450E2D6E6C0E2E6EEE
:100C6800C3DD20DF6C0E2D6E650E2E6EBDDD1ADF26
:100C7800650E2D6E6B0E2E6EB7DD14DF6B0E2D6EAE
:100C8800740E2E6EB1DD0EDF740E2D6E720E2E6E8A
:100C9800ABDD08DF720E2D6E6F0E2E6EA5DD02DF46
:100CA8006F0E2D6E6E0E2E6E9FDDFCDE6E0E2D6E9F
:100CB800690E2E6E99DDF6DE690E2D6E6B0E2E6EA8
:100CC80093DDF0DE6B0E2D6E610E2E6E8DDDEADE8D
:0E0CD800610E2D6E200E2E6E87DDE4DE120002
:100CE6000E0E2D6E100E2E6E000E2F6E7E0E306EB8
:100CF600100E316E000E326E13DF090E2D6E000ED1
:100D06002E6E1DDF0A0E2D6E090E2E6E18DF0B0ECF
:100D16002D6E060E2E6E13DF0C0E2D6E010E2E6E30
:060D26000EDFF0DE1200FA
:0A0D2C0062DFDBDF73DFFED7FFD7C5
:100D3600000000000000000000080808080800087D
:100D460000141414000000400014143E143E145401
:100D560000081E281C0A3C080030320408102646EB
:100D660000182428102A245A000C04080000004009
:100D760000081020202010080008040202020408BF
:100D86000000081C3E1C0800000008083E08080079
:100D96000000000000000810000000003E000000F7
:100DA60000000000000000080000020408102000F7
:100DB600001C22222222221C0008182808080808E3
:100DC600001C22020C10203E001C22020C02221CD7
:100DD60000040C14241E0404003E20203E02027E61
:100DE600000C10203C22221C003E02040810105069
:100DF600001C22221C22225C001C22221E02025CF3
:100E060000000800000008000000080000000810AC
:100E160000040810201008040000003E003E0000F8
:100E26000010080402040810001C22020C08000826
:100E3600001C22021A2A2A1C001C2222223E2222DE
:100E4600003C22223C22223C001C22202020221C84
:100E56000038242222222438003E20203C20203E36
:100E6600003E20203C202020001C22202E22221E74
:100E7600002222223E222222001C08080808081C02
:100E8600000E0404040424180022242830282422F6
:100E9600002020202020203E0022362A2A2222223C
:100EA600002222322A262222001C22222222221C50
:100EB600003C22223C202020001C2222222A241A26
:100EC600003C22223C282422001E20201C02023C38
:100ED600003E080808080808002222222222221CB6
:100EE6000022222222221408002222222A2A2A143E
:100EF6000022221408142222002222221C0808089A
:100F0600003E02040810203E003020202020203021
:100F16000000201008040200000E02020202020E67
:100F26000008140000000000000000000000003E61
:100F360000080400000000000000001C021E221E23
:100F4600002020202C32223C0000003C2020223CA5
:100F5600000202021A26221E0000001C223E201C4D
:100F6600000C12103810101000001E22221E021C47
:100F7600002020202C322222000008000808080841
:100F86000004000C040424180020202428302824FF
:100F9600001808080808081C000000342A2A222223
:100FA6000000002C322222220000001C2222221CD9
:100FB6000000003C223C20200000001A261E0202EF
:100FC6000000002C322020200000001C201C023CC7
:100FD600001010381010120C000000222222261ACF
:100FE600000000222222142800000022222A2A1CA5
:100FF600000000221408142200000022221E021CF7
:081006000000003E0408103E4A
:10100E00B8013C0090013C00C4013C00D0013C0002
:10101E00F4003C00DC013C0094003C0088003C00E5
:10102E00C4003C0070003C00A0003C00B8003C0036
:10103E00FFFFFFFFFFFFFFFFFFFFFFFFFFFFFFFFB2
:10104E00FFFFFFFFFFFFFFFFFFFFFFFFFFFFFFFFA2
:10105E00FFFFFFFFFFFFFFFFFFFFFFFFFFFFFFFF92
:10106E00020000000000000000000000010000006F
:08107E009C013C00FFFFFFFF95
:020000040030CA
:0E00000015137F7CF98B91FFFFC0FFE0FF40DE
:00000001FF
